:10080000E4F51EF51FE51F25E02408F8A61E08A63E
:100810001F051FE51F7002051E6405451E70E6E4F6
:10082000F520F521E4F522F523AC22AD23AE20AF6F
:1008300021120903E52175F006A42412F8ED25E044
:1008400028F8A60608A6070523E5237002052264FA
:1008500003452270D40521E521700205206402457C
:100860002070C1E4F51EF51F75B03D7F4B7E001270
:1008700008E3E51F25E024081208DA051FE51F70CC
:1008800002051EC39405E51E6480948040DAE4F5F9
:1008900020F521E4F522F52375B03D7F4B7E001253
:1008A00008E3E52175F006A42412F8E52325E028E5
:1008B0001208DA0523E52370020522C39403E5221A
:1008C0006480948040D20521E52170020520C39404
:0A08D00002E5206480948040BA2203
:0908DA00F808E6F5B07F967E00F7
:1008E300E4FDFCD3ED9FEC9E5015E4FBFA0BBB003B
:0F08F300010ABA1DF8BB4DF50DBD00010C80E4E4
:0109020022D2
:03000000020915DD
:0C091500787FE4F6D8FD7581230208000D
:10090300EF8DF0A4A8F0CF8CF0A428CE8DF0A42E08
:02091300FE22C2
:00000001FF
