:10080000E4F508F5091208E98509B07F967E001223
:1008100008F00509E50970020508D39405E50864A8
:1008200080948040E0E4F508F5091208E98509B0F4
:100830007F967E001208F00509E50970020508D3CD
:100840009405E5086480948040E0E4F50AF50BE542
:100850000A7043E50B14601714602114602B240305
:1008600070341208E9850BB07F967E001208F012F2
:1008700008E9850BB07F967E001208F01208E98522
:100880000BB07F967E001208F01208E9850BB07F4E
:10089000967E001208F0E4F5B0050BE50B7002053A
:1008A0000AD39403E50A6480948040A3E4F508F534
:1008B00009E5094508701275B03D7F4BFE1208F03E
:1008C0008509B07F967E0080091208E9E4F5B07FC3
:1008D00096FE1208F00509E50970020508D3940197
:0908E000E5086480948040C922FF
:0708E90075B03D7F4B7E005E
:1008F000E4FDFCD3ED9FEC9E5015E4FBFA0BBB002E
:0F090000010ABA1DF8BB4DF50DBD00010C80E4D6
:01090F0022C5
:03000000020910E2
:0C091000787FE4F6D8FD75810B0208002A
:00000001FF
