:10080000E4F508F509E4F50AF50BE5094508600982
:10081000E50B450A6003D38001C31209FED2B37F02
:100820004B7E00120A06E50945087006E50B450AED
:100830006003D38001C392B3C2B2120A02D2B27F64
:100840004B7E00120A06E5094508600CE50B450AD7
:1008500060067E007F0180047E007F00EE4F24FF53
:10086000B31209FED2B37F4B7E00120A06E508558B
:100870000AFEE509550B1209FBD2B37F4B7E00122D
:100880000A06E508450AFEE509450B4E24FF92B32A
:10089000C2B2120A02D2B27F4B7E00120A06E508EB
:1008A000650AFEE509650B1209FBD2B37F4B7E009A
:1008B000120A06C3E509950BFFE508950A4F1209D0
:1008C000FCD2B37F4B7E00120A06AC0AAD0BAE0819
:1008D000AF09120970EE4F24FF92B3C2B2120A029E
:1008E000D2B27F4B7E00120A06C2B2D3E509950B45
:1008F000E50A6480F8E5086480984006E50A450B3F
:100900008004E508450924FF92B3120A02D2B27F9F
:100910004B7E00120A06C2B3C3E509950BE50A64D3
:1009200080F8E5086480984006E50845098004E5FC
:100930000A450B24FF92B2120A02D2B37F4B7E000B
:10094000120A06050BE50B7002050AD39401E50AAD
:1009500064809480500302080A0509E509700205C5
:1009600008D39401E50864809480500302080522AE
:0B09FB004E24FF92B2C2B37F967E0034
:100A0600E4FDFCD3ED9FEC9E5015E4FBFA0BBB0016
:0F0A1600010ABA1DF8BB4DF50DBD00010C80E4BF
:010A250022AE
:03000000020A26CB
:0C0A2600787FE4F6D8FD75810B02080013
:10097000C2D5EC30E709B2D5E4C39DFDE49CFCEEA2
:1009800030E715B2D5E4C39FFFE49EFE1209A6C36B
:10099000E49DFDE49CFC80031209A630D507C3E466
:0609A0009FFFE49EFE2211
:1009A600BC000BBE0029EF8DF084FFADF022E4CC35
:1009B600F875F008EF2FFFEE33FEEC33FCEE9DECFE
:1009C600984005FCEE9DFE0FD5F0E9E4CEFD22ED44
:1009D600F8F5F0EE8420D21CFEADF075F008EF2F8E
:1009E600FFED33FD4007985006D5F0F222C398FD7F
:0509F6000FD5F0EA221C
:00000001FF
