:1009B200E4F58CF58AD2807F0AFE12097CC280227D
:1008E4001209B230B2FD20B2FDAF8CEFFEAD8A7CAE
:1008F40000E42DFFEC3EFEE48F0B8E0AF509F508AB
:100904007F707E94FDAB0BAA0AA909A808C312083C
:1009140000501EE47B3BFAF9F8AF0BAE0AAD09AC0C
:10092400081209388E0C8F0DE50D450C6005C2B216
:0309340022C2B329
:01093700229D
:10099C00758944D28CE4F58CF58A1208E47F027ECA
:0609AC000012097C80F43A
:10097C00E4FDFCC3ED9FEC9E5015E4FBFA0BBB00B1
:0F098C00010ABA04F8BBFBF50DBD00010C80E4B5
:01099B002239
:030000000209C230
:0C09C200787FE4F6D8FD75810D02099CD9
:10093800C2D5E830E70FB2D5E4C39BFBE49AFAE4EA
:1009480099F9E498F8EC30E717B2D512096E120855
:1009580052E4C39BFBE49AFAE499F9E498F880031B
:1009680012085230D50DE4C39FFFE49EFEE49DFDBE
:04097800E49CFC22DD
:10080000EB9FF5F0EA9E42F0E99D42F0EC6480C86F
:0608100064809845F0220F
:1008160075F008758200EF2FFFEE33FECD33CDCC99
:1008260033CCC58233C5829BED9AEC99E58298401C
:100836000CF582EE9BFEED9AFDEC99FC0FD5F0D6F9
:10084600E4CEFBE4CDFAE4CCF9A88222B800C1B923
:100856000059BA002DEC8BF084CFCECDFCE5F0CB61
:10086600F97818EF2FFFEE33FEED33FDEC33FCEB9A
:1008760033FB10D703994004EB99FB0FD8E5E4F955
:10088600FA227818EF2FFFEE33FEED33FDEC33FC42
:10089600C933C910D7059BE99A4007EC9BFCE99A36
:1008A600F90FD8E0E4C9FAE4CCFB2275F010EF2F7B
:1008B600FFEE33FEED33FDCC33CCC833C810D7077B
:1008C6009BEC9AE899400AED9BFDEC9AFCE899F8B6
:0E08D6000FD5F0DAE4CDFBE4CCFAE4C8F92249
:00000001FF
