:100800007F3812089F7F327E0012087F7F0E120809
:100810009F12087B7F0112089F12087B7F801208BD
:100820009FE4F508F509758920758DFD759850D2FE
:100830008E3098FD0509E5097002050814240CF8AE
:10084000A699C298740C2509F8E6B430D9E4F50AE3
:10085000F50BE5092401FFE43508FEC3E50B9FE530
:100860000A9E509C740C2509F8E6FF1208AF120886
:0B0870007B0509E50970DB050880D757
:10089F008F80C2A0D2A27F017E0012087FC2A22247
:1008AF008F80D2A0D2A27F017E0012087FC2A22227
:04087B007F507E002C
:10087F00E4FDFCC3ED9FEC9E5015E4FBFA0BBB00AF
:0F088F00010ABA04F8BBFBF50DBD00010C80E4B3
:01089E002237
:030000000208BF34
:0C08BF00787FE4F6D8FD75812402080063
:00000001FF
