:100800007F381208667F327E001208467F0E12087B
:10081000661208427F011208661208427F801208A1
:10082000661208427F531208761208427F5412085B
:10083000761208427F501208767F647E00120846C6
:0208400080BE78
:100866008F80C2A0D2A27F017E00120846C2A222B9
:100876008F80D2A0D2A27F017E00120846C2A22299
:040842007F507E0065
:10084600E4FDFCC3ED9FEC9E5015E4FBFA0BBB00E8
:0F085600010ABA04F8BBFBF50DBD00010C80E4EC
:010865002270
:030000000208866D
:0C088600787FE4F6D8FD758107020800B9
:00000001FF
