:10080000750800750901750A00750B06750C0075F1
:100810000D48750E00750F0075100875B03D7F4BC3
:100820007E00120872120863750E00750F007510B5
:100830000A75B03D7F4B7E00120872120863750E78
:1008400000750F0075100C75B03D7F4B7E001208CF
:1008500072AB0EAA0FA910120892F5B07F967E0017
:0308600002087219
:0F086300AB0EAA0FA910120892F5B07F967E0077
:10087200E4FDFCD3ED9FEC9E5015E4FBFA0BBB00AC
:0F088200010ABA1DF8BB4DF50DBD00010C80E455
:010891002244
:030000000208BD36
:0C08BD00787FE4F6D8FD75811002080079
:10089200BB010A89828A83E0F5F0A3E02250068731
:1008A200F009E71922BBFE07E3F5F009E3192289F3
:0B08B200828A83E493F5F07401932226
:00000001FF
