:080A080002080001020A0003CC
:100929001209FD8E0C8F0DE4F5B07F96FE1209A514
:10093900850DB01209A1AD09AC08AF0DAE0C120AB4
:10094900118E0E8F0F12099E850FB01209A112097F
:10095900C51209E1AF09AE081209758E0C8F0D1287
:0C096900099E850DB07F4B7E000209A5A1
:0A09FD00E509250BFFE508350AFEA9
:010A070022CC
:070A1100C3EF9DFFEE9CFE08
:010A180022BB
:1009C5007F017E007D017C001208008E108F1112C0
:0C09D500099E8511B07F967E000209A5E6
:1009E1007F017E007D017C001208128E108F111292
:0C09F100099E8511B07F967E000209A5CA
:040975008E108F1140
:10097900C3E510648094804017851012851113E532
:100989001115117002151014FFAE1012097580E0CF
:04099900AE12AF13D8
:01099D002237
:07099E0075B03D7F967E005D
:1009A500E4FDFCD3ED9FEC9E5015E4FBFA0BBB0078
:0F09B500010ABA1DF8BB4DF50DBD00010C80E421
:0109C4002210
:0300000002089D56
:0C089D00787FE4F6D8FD7581130208E4B2
:10080000EF8DF0A4A8F0CF8CF0A428CE8DF0A42E0C
:02081000FE22C6
:10081200C2D5EC30E709B2D5E4C39DFDE49CFCEE01
:1008220030E715B2D5E4C39FFFE49EFE120848C329
:10083200E49DFDE49CFC800312084830D507C3E424
:060842009FFFE49EFE2270
:1008A900020929E493A3F8E493A34003F68001F233
:1008B90008DFF48029E493A3F85407240CC8C33350
:1008C900C4540F4420C8834004F456800146F6DF1F
:1008D900E4800B0102040810204080900A08E47E9D
:1008E900019360BCA3FF543F30E509541FFEE49314
:1008F900A360010ECF54C025E060A840B8E493A3DB
:10090900FAE493A3F8E493A3C8C582C8CAC583CA05
:10091900F0A3C8C582C8CAC583CADFE9DEE780BEBD
:010A100000E5
:10084800BC000BBE0029EF8DF084FFADF022E4CC94
:10085800F875F008EF2FFFEE33FEEC33FCEE9DEC5D
:10086800984005FCEE9DFE0FD5F0E9E4CEFD22EDA3
:10087800F8F5F0EE8420D21CFEADF075F008EF2FED
:10088800FFED33FD4007985006D5F0F222C398FDDE
:050898000FD5F0EA227B
:00000001FF
