:100A0000C2B2D2B3120B48D2B2C2B3120B48E4F551
:100A10000CF50D75B03D7F4B7E00120B4C850DB073
:100A2000120B48050DE50D7002050CD39407E50C7B
:100A30006480948040DD750E4175B03D7F4B7E0033
:100A4000120B4C850EB0120B48050ED3E50E6480D8
:100A500094DA40E5750E6175B03D7F4B7E00120B58
:100A60004C850EB0120B48050ED3E50E648094FA47
:100A700040E5750B9A750A9975091975083F7F331A
:100A80007E337DF37C40AB0BAA0AA909A8081208A3
:100A9000F86002503175B03D7F4B7E00120B4CAFB9
:100AA0000BAE0AAD09AC08120B43AF0BAE0AAD0991
:100AB000AC08E4FBFA7980783F1208078F0B8E0AA6
:100AC0008D098C0880B87512CD7511CC75104C75D8
:100AD0000F3E7F667E667DE67C40AB12AA11A910B0
:100AE000A80F1208F86002503175B03D7F4B7E00B0
:100AF000120B4CAF12AE11AD10AC0F120B43AF1274
:100B0000AE11AD10AC0FE4FBFA7980783F12080704
:100B10008F128E118D108C0F80B8E4F513F514D35D
:100B2000E514943DE5136480948050168514808507
:100B300080B0120B48743D2514F514E43513F513F9
:030B400080DD2233
:090B43001209718FB07F967E004B
:100B4C00E4F580AD80C3ED9FE49E5012E4FDFC0DF6
:0E0B5C00BD00010CBC1DF8BD4CF5058080E508
:010B6A002268
:100800000209DDE86480F8E933E83360110460F040
:10081000ED33EC337009E8FCE9FDEAFEEBFF22045E
:1008200060DED3EB9FEA9EE99DE8C2E78CF0C2F759
:1008300095F0400CE8CCF8E9CDF9EACEFAEBCFFB25
:100840001209A885D0F05804700320D5B3E80470CD
:10085000075002B2D50209E792D5EC0460F7E4CC68
:10086000C0E0C398F8603B94186008400DD0E0FBEE
:100870000209BFE4FBFAC9FC8028E830E406E4C9B9
:10088000FBE4CAFCE830E305E4C9CACBFCE8540742
:100890006010F8C3E913F9EA13FAEB13FBEC13FC4D
:1008A000D8F130F52FC3E49CFCEF9BFFEE9AFEEDF0
:1008B00099FDD0E0FBEF4E4D4C701222DB03020994
:1008C000E4EC2CFCEF33FFEE33FEED33FDED30E7CF
:1008D000EB0209BFEF2BFFEE3AFEED39FDD0E0FB56
:1008E00050130BBB00030209E7ED13FDEE13FEEFFF
:0808F00013FFEC13FC0209BF29
:1008F80074F8CC6480CCC86480C8F58204604FC3A7
:10090800EB9FF5F0EA9E42F0E99D42F0E89C45F045
:10091800603C501DE5825FFFE582D313CB5BCBF4CF
:100928002B5582FB50280ABA002409B900200880F8
:100938001DE5825BFBE582D313CF5FCFF4C3132F92
:100948005582FF50090EBE00050DBD00010CC3EB1A
:100958009FF5F0EA9E42F0E99D42F0E89C45F06080
:0909680007CC4820E701B3EC22A2
:10097100EDD2E7CD33EC3392D524814006E4FFFE7E
:10098100FDFC22FCE4CFCECDCC24E0501174FF80DD
:10099100EDC3CC13CCCD13CDCE13CECF13CF04707A
:0709A100F030D5DE0209F27F
:1009A800E9D2E7C933E833F892D5EDD2E7CD33EC95
:0709B80033FC5002B2D5220E
:1009BF00EC30E7100FBF000C0EBE00080DBD000499
:1009CF000BEB6014A2D5EB13FCED92E7FD2274FF45
:1009DF00FCFDFEFF22E480F8A2D574FF13FC7D809E
:0309EF00E480EFB2
:03000000020B6B85
:0C0B6B00787FE4F6D8FD758114020A00C2
:0E09F200C3E49FFFE49EFEE49DFDE49CFC2216
:00000001FF
